:020000040800F2
:10000000D806002055020008410C0008810B0008AA
:100010003D0C00084D0400082D15000800000000EC
:10002000000000000000000000000000D9130008DC
:100030005104000800000000D5130008DD1300087B
:100040006F0200086F0200086F0200086F020008CC
:100050006F0200086F0200086F0200086F020008BC
:100060006F0200086F0200086F0200086F020008AC
:100070006F0200086F0200086F0200086F0200089C
:100080006F0200086F0200086F0200086F0200088C
:100090006F0200086F0200086F0200086F0200087C
:1000A0006F0200086F0200086F0200086F0200086C
:1000B0006F0200086F0200086F0200086F0200085C
:1000C0006F0200086F0200086F0200086F0200084C
:1000D0006F0200086F0200086F0200086F0200083C
:1000E0006F0200086F0200086F0200086F0200082C
:1000F0006F0200086F0200086F0200086F0200081C
:100100006F0200086F0200086F0200086F0200080B
:100110006F0200086F0200086F0200086F020008FB
:100120006F0200086F0200086F0200086F020008EB
:100130006F0200086F0200086F0200086F020008DB
:100140006F0200086F0200086F0200086F020008CB
:100150006F0200086F0200086F0200086F020008BB
:100160006F0200086F0200086F0200086F020008AB
:100170006F0200086F0200086F0200080000000014
:100180006F0200086F02000800F002F800F052F859
:1001900014A696E8000CB244B344DA4501D100F04D
:1001A00049F8BAE80F000FA696E83000A5EB040561
:1001B00004EB0607AAEB0704A7F101074FEA1515A0
:1001C0004FEA3414A4F10104AC4201D300F032F838
:1001D00013F0010F18BFFB1A43F0010300F001F800
:1001E000DBE71847241E0000441E0000103A24BF1D
:1001F00078C878C1FAD8520724BF30C830C144BF8C
:1002000004680C6070470000704700000023002461
:1002100000250026103A28BF78C1FBD8520728BF16
:1002200030C148BF0B6070471FB501F0CBFA1FBD4E
:1002300010B510BD00F0D0F81146FFF7F5FF01F042
:100240008FFA00F0EEF803B4FFF7F2FF03BC00F002
:10025000F5F800000948804709480047FEE7FEE737
:10026000FEE7FEE7FEE7FEE7FEE7FEE7FEE7FEE766
:1002700004480549054A064B7047000089140008E8
:1002800089010008D8000020D8060020D8020020EC
:10029000D802002053EA020C00F069802DE9F04BEF
:1002A0004FF00006002B1FBFB3FA83F503FA05F4E5
:1002B00024FA05F65E4012BF1643B2FA82F502FA3E
:1002C00005F4C5F120051EBF22FA05FC44EA0C0422
:1002D000203556EA044C4FEA144418BF641C4FF012
:1002E00000084FF00009904271EB030C39D300294C
:1002F00019BFB1FA81F701FA07F6B0FA80F700FAF0
:1003000007F6C7F120071EBF20FA07FC46EA0C06D5
:100310002037B6FBF4FCA7EB0507103F07F01F0BD7
:10032000CBF120062CFA06F60CFA0BFB44BFB346C1
:100330000026202FA4BF5E464FF0000B5BEA060CA0
:1003400008BF4FF0010B19EB0B0948EB0608ABFB9C
:10035000027C06FB02CC0BFB03CCC01B71EB0C0137
:10036000C1E70B46024641464846BDE8F08B13B54F
:10037000084318BF4FF0FF300146AFF30080BDE8DF
:100380001C4070474FF0000200B513469446964655
:10039000203922BFA0E80C50A0E80C50B1F1200198
:1003A000BFF4F7AF090728BFA0E80C5048BF0CC046
:1003B0005DF804EB890028BF40F8042B08BF7047A4
:1003C00048BF20F8022B11F0804F18BF00F8012B16
:1003D0007047704770477047754600F02BF8AE467F
:1003E00005006946534620F00700854618B020B541
:1003F000FFF73EFFBDE820404FF000064FF000073A
:100400004FF000084FF0000BAC46ACE8C009ACE878
:10041000C009ACE8C009ACE8C00921F007018D466D
:10042000704710B50446AFF300802046BDE8104089
:10043000FFF709BF004870477000002001491820ED
:10044000ABBEFEE72600020070470000FEE700009A
:1004500070470000B0B5044600F010F8054640F2C1
:100460000000C2F200000078611C18BF044400BF05
:1004700000F004F8401BA042FAD3B0BD40F2D00017
:10048000C2F200000068704740F2000040F2D00164
:10049000C2F20000C2F2000100780A68104408604D
:1004A0007047000080B543F60040C4F202000168C6
:1004B00041F400710160016841F4806101600168EC
:1004C00041F480710160032000F074F80F2000F007
:1004D00005F800F027F8002080BD000070B540F25C
:1004E0000006C2F2000640F26C013278C2F200014E
:1004F0004FF47A730968B3FBF2F20446B1FBF2F1F0
:10050000084600F027FB0F2C4FF0010508D838B93A
:100510004FF0FF3021460022002500F01FF87460E4
:10052000284670BD82B0002043F640010190C4F21D
:1005300002014A6842F480424A604A6802F48042FA
:100540000192019A0090086840F0805008600868A5
:1005500000F080500090009802B0704710B54EF641
:100560000C5CCEF2000CDCF80030C3F3022E8EF0EF
:100570000704042C28BF0424BEF103034FF0FF3E00
:100580000EFA04F438BF0023A14399400EFA03F396
:100590009A43114300F00F0200F160430901043A4D
:1005A00003F564436244002848BF02F10C0319704C
:1005B00010BD00004EF60C51CEF200010A684FF655
:1005C000FF031A4060F30A2242F0806040F0FD70A1
:1005D00008607047002804BF012070472DE9F041F2
:1005E00043F60808C4F202080446D8F8F8030D469A
:1005F00000F00700814207D988F8F853D8F8F803CB
:1006000000F00700A84277D12068810717D541077D
:1006100005D5D8F8001041F4E051C8F800100107E2
:1006200005D5D8F8001041F46041C8F80010D8F89A
:100630000010A26821F0F0011143C8F80010C007B3
:1006400040D1D8F8F80300F00700854207D288F8B7
:10065000F853D8F8F80300F00700A8424CD12068FE
:10066000410707D5D8F80010E26821F4E0511143A2
:10067000C8F80010000708D5D8F80000216920F458
:10068000604040EAC100C8F8000000F055F8D8F812
:10069000001041F2DE72C1F30311C0F60002515C9A
:1006A00040F26C0220FA01F140F20400C2F20000B4
:1006B0000068C2F200021160FFF710FF0020BDE8E1
:1006C000F08100BF6068811E022907D258F8081C1B
:1006D00089015CBF0120BDE8F08111E0012807D14C
:1006E00058F8081C89035CBF0120BDE8F08107E0D1
:1006F00058F8081C890703D40120BDE8F08100BF29
:10070000D8F8001021F003010843C8F80000FFF7F3
:10071000B5FE064641F28837D8F80000616800F05F
:100720000C00B0EB810F8CD0FFF7A8FE801BB84205
:10073000F2D90320BDE8F08110B543F60404C4F2F9
:1007400002046168C1F3810142F20040C0F2F4008A
:10075000DFE801F002040A0210BD00BF47F64000C6
:10076000C0F27D1010BD00BF2068216823684902D7
:1007700047F64001C0F27D1100F03F02C3F388103C
:100780005CBF42F20041C0F2F401A1FB0001002372
:10079000FFF780FD21680222C1F3014102EB410114
:1007A000B0FBF1F010BD0000002804BF012070472D
:1007B0002DE9F04182B00446007843F60006C007F8
:1007C000C4F202060CD0B06800F00C00042840F01F
:1007D00081803068800303D56068002800F068815C
:1007E000207880071BD5B06810F00C0F09D0B068D6
:1007F00000F00C00082840F087807068400200F18B
:1008000083803068800703D5E068012840F050817C
:100810003068216920F0F80040EAC100306020789B
:10082000000713D4207840072AD4A569002D00F0D2
:100830003A81B06800F00C00082840F0A580012D36
:1008400040F00E81012002B0BDE8F081606900280F
:1008500000F082800020C4F247200121C0F8801EF1
:10086000FFF70CFE054600BF706F8007DAD4FFF774
:1008700005FE401B0228F7D9032002B0BDE8F08135
:10088000306C5FEAC0080AD400200190306C40F060
:1008900080503064306C00F080500190019847F235
:1008A0000007C4F200073868C00547D4386840F430
:1008B00080703860FFF7E2FD054600BF3868C0056C
:1008C0003CD4FFF7DBFD401B0228F7D9032002B020
:1008D000BDE8F081B06800F00C00082803D1706812
:1008E00040023FF576AF61683068B1F5803F07D0D0
:1008F000B1F5A02F40F09A8040F48020306030683D
:1009000040F4803030609AE0E068002840F2000057
:10091000C4F247205CD001210160FFF7AFFD05461E
:10092000306880073FF574AFFFF7A8FD401B022831
:10093000F6D9032002B0BDE8F08100BFA168306F96
:10094000012905D0052955D140F004003067306FEA
:1009500040F00100306756E00020C4F2472000213B
:10096000C0F8801EFFF78AFD054600BF706F800744
:100970007FF558AFFFF782FD401B0228F6D9032010
:1009800002B0BDE8F08100BF0027C4F24727002075
:100990003866FFF773FD022D05460DD130688001E2
:1009A00040F18A80FFF76AFD401B02284FF00300E8
:1009B000F4D902B0BDE8F0813068800173D5FFF74B
:1009C0005DFD401B02284FF00300F5D9F1E700BFA1
:1009D00000210160FFF752FD054600BF3068800727
:1009E0007FF51DAFFFF74AFD401B02284FF00300C3
:1009F000F4D9DEE720F001003067306F002920F0E5
:100A0000040030677AD0FFF739FD054641F2883798
:100A1000306F800700F18480FFF730FD401BB84243
:100A2000F6D9032002B0BDE8F08100BF20F4803089
:100A300030603068002920F4802030607AD0FFF7E1
:100A40001DFD0546306880033FF5CAAEFFF716FD71
:100A5000401B6428F6D9032002B0BDE8F08100BF36
:100A60007068E16900F480028A4221D1216A00F0B5
:100A70003F028A421CD147F6C071626A0140B1EB65
:100A8000821F15D1A16A4FF6FF73C903994300F481
:100A90004032A1F580318A420AD1E16A00F07060EB
:100AA000B0EB016F04D1002002B0BDE8F08100BFBF
:100AB000012002B0BDE8F08104F11C052FCD0843F0
:100AC00040EA8210D9034FF6FF729143A1F58031BD
:100AD00040EA05600843706001203866FFF7CEFCED
:100AE000044600BF30688001DDD4FFF7C7FC001B5F
:100AF00002284FF00300F5D95BE700BFFFF7BEFC0B
:100B0000054641F2883700BF306F800708D5FFF7F0
:100B1000B5FC401BB8424FF00300F5D949E700BFD0
:100B2000B8F1000F3FF581AE306C20F0805030649A
:100B30007BE600BFFFF7A2FC054600BF30688003DC
:100B40007FF54EAEFFF79AFC401B64284FF0030080
:100B5000F4D92EE7411E0020B0EB116F1CBF01201D
:100B600070474EF21002CEF2000251604EF6235151
:100B7000CEF20001F0230B700721906011607047E6
:100B8000FEE7000043F63000C4F20200016841F0C5
:100B900002010160016941F40011016140F200406D
:100BA000C4F20200016821F470410160016841F45F
:100BB00020410160416841F0C0014160816841F419
:100BC00070418160C16821F47041C160C16841F425
:100BD000A041C160016A21F07F410162016A41F0D8
:100BE0008841016245F20040C4F2000024214160C6
:100BF000B421C16125210162016841F00101016058
:100C00007047000082B0002043F630010190C4F22A
:100C100002010A6842F080020A600A6802F080025B
:100C20000192019A0090086840F00100086008688D
:100C300000F001000090009802B07047FEE700004D
:100C4000FEE70000B0B504463C200021B02201239D
:100C5000002500F06DFC3C2000211022012300F053
:100C600067FC3C2000210022012300F061FC00BF52
:100C70003C2040212246012300F05AFC681C45B26A
:100C8000B5F1FF3FF4DC3C200021B1220123002517
:100C900000F04EFC3C2000211022012300F048FC13
:100CA0003C2000210022012300F042FC3C20402196
:100CB0002246012300F03CFC681C45B2B5F1FF3F21
:100CC000F4DC3C200021B2220123002500F030FC9E
:100CD0003C2000211022012300F02AFC3C200021AE
:100CE0000022012300F024FC3C2040212246012365
:100CF00000F01EFC681C45B2B5F1FF3FF4DC3C205F
:100D00000021B3220123002500F012FC3C20002129
:100D10001022012300F00CFC3C20002100220123C2
:100D200000F006FC3C2040212246012300F000FC9C
:100D3000681C45B2B5F1FF3FF4DC3C200021B42231
:100D40000123002500F0F4FB3C20002110220123A8
:100D500000F0EEFB3C2000210022012300F0E8FB24
:100D60003C2040212246012300F0E2FB681C45B2F2
:100D7000B5F1FF3FF4DC3C200021B5220123002522
:100D800000F0D6FB3C2000211022012300F0D0FB14
:100D90003C2000210022012300F0CAFB3C2040211E
:100DA0002246012300F0C4FB681C45B2B5F1FF3FA9
:100DB000F4DC3C200021B6220123002500F0B8FB22
:100DC0003C2000211022012300F0B2FB3C20002136
:100DD0000022012300F0ACFB3C20402122460123ED
:100DE00000F0A6FB681C45B2B5F1FF3FF4DC3C20E7
:100DF0000021B7220123002500F09AFB3C200021AE
:100E00001022012300F094FB3C200021002201234A
:100E100000F08EFB3C2040212246012300F088FB9D
:100E2000681C45B2B5F1FF3FF4DCB0BD80B5C82009
:100E3000FFF710FB3C200021AE22012300F078FBDD
:100E40003C2000212022012300F072FB3C200021E5
:100E50001022012300F06CFB3C2000210022012322
:100E600000F066FB3C2000211022012300F060FB13
:100E70003C2000214022012300F05AFB3C200021AD
:100E8000B022012300F054FB3C20002181220123E9
:100E900000F04EFB3C200021FF22012300F048FB24
:100EA0003C200021C822012300F042FB3C2000210D
:100EB000A122012300F03CFB3C200021A6220123BB
:100EC00000F036FB3C200021A822012300F030FB7B
:100ED0003C2000213F22012300F02AFB3C2000217E
:100EE000D322012300F024FB3C2000210022012317
:100EF00000F01EFB3C200021D522012300F018FB4E
:100F00003C2000218022012300F012FB3C20002124
:100F1000D822012300F00CFB3C20002105220123F4
:100F200000F006FB3C200021D922012300F000FB49
:100F30003C200021F122012300F0FAFA3C2000219C
:100F4000DA22012300F0F4FA3C20002112220123CE
:100F500000F0EEFA3C200021DB22012300F0E8FA49
:100F60003C2000213022012300F0E2FA3C20002145
:100F70008D22012300F0DCFA3C2000211422012301
:100F800000F0D6FA3C200021A422012300F0D0FA80
:100F90003C200021A622012300F0CAFA3C200021B7
:100FA000AF22012300F0C4FA0020FFF74BFE6420BB
:100FB000BDE88040FFF74EBA2DE9F04F81B047B24F
:100FC000DDF828A0C0F3C010A2F1200601EB400418
:100FD000022B27EAE77757D0012B40F0B980A4F124
:100FE0005000C2B23C200021012300F0A1FAF8B267
:100FF000000900F110023C200021012300F098FAC2
:1010000007F00E00421C3C200021012300F090FA62
:10101000F0B2400041F2EE7450FA86F0C0F60004DF
:1010200014F81020BAF1000F4FEA400500F0948048
:1010300082F0FF023C204021012300F079FA2C4489
:101040006078A578E678277980F0FF023C2040217F
:10105000012300F06DFA85F0FF023C2040210123BE
:1010600000F066FA86F0FF023C204021012300F0E8
:101070005FFA87F0FF023C204021012300F058FA7C
:101080006079C0434FE100BFA4F15000C2B23C20E0
:101090000021012300F04CFAF8B2000900F1100B16
:1010A0003C2000215A46012300F042FA07F00E00CE
:1010B000421C3C2000210123009200F039FAF0B2DA
:1010C00041F616254FEA0019C0F6000515F809206B
:1010D000BAF1000F64D082F0FF023C2040210123CE
:1010E00000F026FA05EB09067078B778F57896F8DF
:1010F000048080F0FF023C204021012300F018FA18
:1011000087F0FF023C204021012300F011FA85F016
:10111000FF023C204021012300F00AFA88F0FF0280
:101120003C204021012300F003FA7079402180F037
:10113000FF023C20012300F0FBF9B079402180F050
:10114000FF023C20012300F0F3F9F079C0435FE097
:1011500001B0BDE8F08F00BF3C204021012300F02A
:10116000E7F92F197A78BC78FD783E793C20402148
:10117000012300F0DDF93C2040212246012300F04C
:10118000D7F93C2040212A46012300F0D1F93C2028
:1011900040213246012300F0CBF97879C3E000BF4B
:1011A0003C204021012300F0C3F905EB090898F821
:1011B000012098F802605F4698F803B098F8045050
:1011C0003C204021012300F0B3F93C20402132466D
:1011D000012300F0ADF93C2040215A460123BB46D3
:1011E00000F0A6F93C2040212A46012300F0A0F996
:1011F00098F805203C204021012300F099F998F847
:1012000006203C204021012300F092F998F80700C5
:10121000C2B23C204021012300F08AF9A4F14F0022
:10122000C2B23C200021012300F082F93C200021C1
:101230005A46012300F07CF9009A3C20002101234A
:1012400000F076F941F61620C0F6000000EB090721
:101250003A7ABAF1000F39D082F0FF023C204021E7
:10126000012300F065F9787ABC7AFD7A3E7B80F044
:10127000FF023C204021012300F05AF984F0FF02D4
:101280003C204021012300F053F985F0FF023C206F
:101290004021012300F04CF986F0FF023C20402160
:1012A000012300F045F9787B402180F0FF023C20CB
:1012B000012300F03DF9B87B402180F0FF023C2083
:1012C000012300F035F9F87BC0432CE03C2040219D
:1012D000012300F02DF97A7ABC7AFD7A3E7B3C201E
:1012E0004021012300F024F93C2040212246012323
:1012F00000F01EF93C2040212A46012300F018F995
:101300003C2040213246012300F012F97A7B3C2038
:101310004021012300F00CF9BA7B3C20402101233D
:1013200000F006F9F87BC2B23C204021012301B055
:10133000BDE8F04F00F0FCB82DE9F04381B0144651
:101340001278002A43D0DDF8208099460D460646E3
:101350000027022B18D0B9F1010F2BD1F0B2E9B25E
:10136000D2B20123CDF80080FFF726FE0636F0B298
:1013700001377A28F8B288BF0135225C88BF002681
:10138000002AEBD123E000BFF0B2E9B2D2B20223CF
:10139000CDF80080FFF710FE0836F0B2013778284C
:1013A000F8B288BF0135225C88BF0026002AEBD145
:1013B0000DE000BFD2B2304629464B46CDF8008042
:1013C000FFF7FAFD0137F8B2225C002AF2D101B032
:1013D000BDE8F0837047000070470000FFF754B885
:1013E00070B592B006AC20463021FEF7CBFF002549
:1013F00043F640000595CDE90355CDE9015500952B
:10140000C4F202000168022641F0805101600068C8
:1014100000F080500090009847F200000095C4F260
:101420000000016841F480410160006800F48040E0
:10143000009000980120099010200A9008200E903A
:10144000A820CDE90F060420119020460696CDE98C
:101450000C65FFF7A9F918B172B600BFFEE700BF2F
:101460000F20CDE901064FF4A05004904FF48050B6
:10147000059001A805210395FFF7ACF810B172B6ED
:10148000FEE700BF12B070BD4EF68850CEF20000ED
:10149000016841F4700101607047000043F63000BC
:1014A000C4F20200016841F001010160016941F4E8
:1014B000003101610020C4F20200016821F0F00156
:1014C0000160016841F0A0010160016A21F47F41DF
:1014D0000162016A41F4EE41016244F20840C4F243
:1014E000000040F26D11016042F20C014160704752
:1014F0000178002908BF704744F20042C4F200029C
:1015000004E000BF516010F8011F69B113681B06A9
:10151000F8D413681B065CBF13685FEA0363F1D459
:1015200013681B06F2D5EDE770470000FEE70000E8
:10153000D0B502AF03F1080E45F2144C2EF0070EA1
:10154000C4F2000CADEB0E0EF5468EF800108EF8CE
:1015500001205CF8141C41F001014CF8141C5CF8EB
:10156000141C41F480714CF8141CDCF80010C907FD
:101570000CD1DCF80010C90704BFDCF800105FEAEA
:10158000C17103D1DCF80010C907EED040004CF85F
:10159000040CDCF8000080070CD4DCF800008007A5
:1015A0005CBFDCF800005FEA807003D4DCF8000068
:1015B0008007EED5DCF80000DCF80400591C032B92
:1015C00001F0030066D20021002841D0DCF80020A1
:1015D00012060CD4DCF8002012065CBFDCF80020F8
:1015E0005FEA026203D4DCF800201206EED51EF892
:1015F000012001284CF8042C2AD0DCF80020120627
:101600000CD4DCF8002012065CBFDCF800205FEA96
:10161000026203D4DCF800201206EED571444A7849
:1016200002284CF8042C13D0DCF8000000060CD47F
:10163000DCF8000000065CBFDCF800005FEA006038
:1016400003D4DCF800000006EED588784CF8040CD2
:10165000DCF8000040070CD4DCF8000040075CBF59
:10166000DCF800005FEA407003D4DCF800004007BB
:10167000EED55CF8140CA7F1080440F400704CF8A7
:10168000140C5CF8140C20F001004CF8140CA54666
:10169000D0BD00BF21F00302002107E01EF8033097
:1016A000043191424CF8043C3FF48EAFDCF800303A
:1016B0001B0608D4DCF800301B065CBFDCF80030E9
:1016C0005FEA036346D51EF801304CF8043C41F054
:1016D0000103DCF8004024060CD4DCF800402406AA
:1016E0005CBFDCF800405FEA046403D4DCF800402F
:1016F0002406EED51EF803304CF8043C41F00203FA
:10170000DCF8004024060DD4DCF8004024065CBF61
:10171000DCF800405FEA046404D4DCF800402406EE
:10172000EED500BF1EF803304CF8043C41F0030333
:10173000DCF800402406B1D4DCF8004024065CBF8D
:10174000DCF800405FEA0464A8D4DCF8004024061A
:10175000EED5A3E7DCF800301B06A7D5B3E7000001
:1017600082B0FEF79FFEFFF799FEFFF739FEFFF705
:1017700049FAFFF793FEFFF705FAFFF757FB012041
:10178000009000200021412202230024FFF714FCD6
:1017900009A20020022101230094FFF7CDFD40F2B1
:1017A0000804C2F2000400BF2046FFF7A1FE642037
:1017B000FEF750FEF8E700BF7975716974657374C0
:1017C00000000000F1EE100A4FF6FF71C0F2C031C8
:1017D00020EA010040F04070E1EE100A704700007E
:1017E00000000000000001020304060708090000D1
:1017F000000000000000002F0000000007000700AC
:1018000000147F147F1400242A7F2A1200626408C7
:101810001323003649552250000005030000000044
:101820001C224100000041221C000014083E081444
:101830000008083E0808000000A060000008080832
:101840000808000060600000002010080402003E4C
:101850005149453E0000427F4000004261514946E7
:10186000002141454B31001814127F1000274545D7
:101870004539003C4A4949300001710905030036E9
:101880004949493600064949291E000036360000FC
:101890000000563600000008142241000014141401
:1018A00014140000412214080002015109060032FC
:1018B0004959513E007C1211127C007F494949363A
:1018C000003E41414122007F4141221C007F4949A5
:1018D0004941007F09090901003E4149497A007FD9
:1018E0000808087F0000417F4100002040413F017F
:1018F000007F08142241007F40404040007F020CDE
:10190000027F007F0408107F003E4141413E007F7E
:1019100009090906003E4151215E007F0919294647
:101920000046494949310001017F0101003F404023
:10193000403F001F2040201F003F4038403F0063D1
:1019400014081463000708700807006151494543F3
:1019500000007F41410000552A552A5500004141B1
:101960007F000004020102040040404040400000AB
:1019700001020400002054545478007F4844443845
:1019800000384444442000384444487F00385454CC
:10199000541800087E0901020018A4A4A47C007F4A
:1019A000080404780000447D4000004080847D00ED
:1019B000007F102844000000417F4000007C041894
:1019C0000478007C0804047800384444443800FC5F
:1019D000242424180018242418FC007C080404087B
:1019E00000485454542000043F444020003C4040F0
:1019F000207C001C2040201C003C4030403C004427
:101A000028102844001CA0A0A07C004464544C442E
:101A1000141414141414000000000000000000004E
:101A2000000000000000000000F8000000000000BE
:101A300000333000000000100C06100C06000000FF
:101A400000000000000040C07840C0784000043F23
:101A500004043F040400007088FC083000000018F3
:101A600020FF211E0000F008F000E0180000002117
:101A70001C031E211E0000F00888700000001E21BB
:101A800023241927211010160E000000000000006A
:101A9000000000000000000000E018040200000048
:101AA00000071820400000020418E0000000004079
:101AB000201807000000404080F0804040000202F3
:101AC000010F01020200000000F00000000001010F
:101AD000011F01010100000000000000000080B0B3
:101AE0007000000000000000000000000000000185
:101AF00001010101010100000000000000000030B0
:101B00003000000000000000000080601804006049
:101B100018060100000000E010080810E000000FA7
:101B2000102020100F00001010F80000000000200E
:101B3000203F202000000070080808887000003056
:101B400028242221300000300888884830000018FE
:101B5000202020110E000000C02010F80000000717
:101B60000424243F240000F808888808080000198D
:101B7000212020110E0000E0108888180000000FBE
:101B8000112020110E0000380808C8380800000095
:101B9000003F000000000070880808887000001CEA
:101BA000222121221C0000E010080810E0000000A3
:101BB000312222110F00000000C0C0000000000010
:101BC0000030300000000000008000000000000035
:101BD000806000000000000080402010080000012C
:101BE00002040810200040404040404040000404EF
:101BF00004040404040000081020408000000020B9
:101C0000100804020100007048080808F0000000F5
:101C1000003036010000C030C828E810E000071886
:101C2000272423140B000000C038E0000000203CF3
:101C300023020227382008F8888888700000203F97
:101C4000202020110E00C0300808080838000718AE
:101C500020202010080008F808080810E000203FA5
:101C6000202020100F0008F88888E8081000203F86
:101C700020202320180008F88888E8081000203F5A
:101C8000200003000000C0300808083800000718D2
:101C90002020221E020008F808000008F808203F53
:101CA000210101213F20000808F808080000002059
:101CB000203F2020000000000808F8080800C0802D
:101CC00080807F00000008F888C028180800203FA6
:101CD00020012638200008F8080000000000203FFE
:101CE00020202020300008F8F800F8F80800203FF5
:101CF000003F003F200008F830C00008F808203FEF
:101D0000200007183F00E01008080810E0000F103E
:101D1000202020100F0008F808080808F000203FD5
:101D2000210101010000E01008080810E0000F1870
:101D3000242438504F0008F8888888887000203F95
:101D40002000030C30200070880808083800003894
:101D5000202121221C00180808F80808180000009B
:101D6000203F2000000008F808000008F808001FC5
:101D7000202020201F000878880000C838080000B4
:101D800007380E010000F80800F80008F800033CCE
:101D90000700073C03000818688080681808203096
:101DA0002C03032C30200838C800C8380800000075
:101DB000203F2000000010080808C838080020381C
:101DC000262120201800000000FE02020200000070
:101DD000007F40404000000C30C0000000000000C8
:101DE00000010638C00000020202FE0000000040B0
:101DF00040407F00000000000402020204000000D6
:101E000000000000000000000000000000008080D2
:101E100080808080808000020204000000000000BA
:101E20000000000000000000808080800000001999
:101E3000242222223F2008F8008080000000003F7A
:101E4000112020110E000000008080800000000E94
:101E5000112020201100000000808088F800000E72
:101E6000112020103F200000808080800000001F93
:101E7000222222221300008080F088888818002007
:101E8000203F202000000000808080808000006BC8
:101E900094949493600008F8008080800000203FB4
:101EA000210000203F2000809898000000000020C2
:101EB000203F20200000000000809898000000C013
:101EC0008080807F000008F8000080808000203F34
:101ED00024022D302000000808F800000000002037
:101EE000203F202000008080808080808000203F74
:101EF00020003F20003F8080008080800000203F45
:101F0000210000203F200000808080800000001F12
:101F1000202020201F00808000808000000080FFA3
:101F2000A12020110E000000008080808000000EA3
:101F3000112020A0FF8080808000808080002020F1
:101F40003F2120000100000080808080800000335D
:101F5000242424241900008080E0808000000000F8
:101F6000001F202000008080000000808000001FF3
:101F7000202020103F208080800000808080000191
:101F80000E300806010080800080008080800F30C5
:101F90000C030C300F000080800080808000002047
:101FA000312E0E3120008080800000808080808172
:101FB0008E701806010000808080808080000021E3
:101FC000302C2221300000000000807C0202000042
:101FD0000000003F404000000000FF000000000043
:101FE0000000FF0000000002027C800000000040B2
:101FF000403F00000000000601010202040400004E
:102000000000000000000000282000080000002060
:1020100070000000EC01000898200008700000200B
:10202000680600000C02000801000000100000001B
:102030004A484800000000000000000000000000C6
:102040000000000000000000000000000000000090
:102050000000000000000000000000000000000080
:102060000000000000000000000000000000000070
:102070000000000000000000000000000000000060
:102080000000000000000000000000000000000050
:08209000000000000024F40030
:040000050800018965
:00000001FF
